{
  "contractName": "nftFactory",
  "abi": [
    {
      "inputs": [],
      "stateMutability": "nonpayable",
      "type": "constructor"
    },
    {
      "anonymous": false,
      "inputs": [
        {
          "indexed": true,
          "internalType": "address",
          "name": "newContract",
          "type": "address"
        },
        {
          "indexed": false,
          "internalType": "string",
          "name": "name",
          "type": "string"
        },
        {
          "indexed": false,
          "internalType": "string",
          "name": "symbol",
          "type": "string"
        }
      ],
      "name": "ContractCreated",
      "type": "event"
    },
    {
      "inputs": [],
      "name": "contractCount",
      "outputs": [
        {
          "internalType": "uint256",
          "name": "",
          "type": "uint256"
        }
      ],
      "stateMutability": "view",
      "type": "function",
      "constant": true
    },
    {
      "inputs": [
        {
          "internalType": "uint256",
          "name": "",
          "type": "uint256"
        }
      ],
      "name": "contracts",
      "outputs": [
        {
          "internalType": "address",
          "name": "",
          "type": "address"
        }
      ],
      "stateMutability": "view",
      "type": "function",
      "constant": true
    },
    {
      "inputs": [],
      "name": "owner",
      "outputs": [
        {
          "internalType": "address",
          "name": "",
          "type": "address"
        }
      ],
      "stateMutability": "view",
      "type": "function",
      "constant": true
    },
    {
      "inputs": [
        {
          "internalType": "string",
          "name": "_name",
          "type": "string"
        },
        {
          "internalType": "string",
          "name": "_symbol",
          "type": "string"
        },
        {
          "internalType": "string",
          "name": "baseURI_",
          "type": "string"
        }
      ],
      "name": "createERC721",
      "outputs": [
        {
          "internalType": "address",
          "name": "",
          "type": "address"
        }
      ],
      "stateMutability": "nonpayable",
      "type": "function"
    },
    {
      "inputs": [
        {
          "internalType": "uint256",
          "name": "_index",
          "type": "uint256"
        }
      ],
      "name": "getContractAddress",
      "outputs": [
        {
          "internalType": "address",
          "name": "",
          "type": "address"
        }
      ],
      "stateMutability": "view",
      "type": "function",
      "constant": true
    }
  ],
  "bytecode": "0x6080604052600060015534801561001557600080fd5b50336000806101000a81548173ffffffffffffffffffffffffffffffffffffffff021916908373ffffffffffffffffffffffffffffffffffffffff160217905550614e6c806100656000396000f3fe60806040523480156200001157600080fd5b50600436106200005e5760003560e01c8063474da79a14620000635780637f9f23c514620000995780638736381a14620000cf5780638da5cb5b14620000f1578063aefa7d981462000113575b600080fd5b6200008160048036038101906200007b9190620003e0565b62000149565b60405162000090919062000457565b60405180910390f35b620000b76004803603810190620000b19190620005d6565b6200017c565b604051620000c6919062000457565b60405180910390f35b620000d96200031c565b604051620000e89190620006a0565b60405180910390f35b620000fb62000322565b6040516200010a919062000457565b60405180910390f35b6200013160048036038101906200012b9190620003e0565b62000346565b60405162000140919062000457565b60405180910390f35b60026020528060005260406000206000915054906101000a900473ffffffffffffffffffffffffffffffffffffffff1681565b60008060009054906101000a900473ffffffffffffffffffffffffffffffffffffffff1673ffffffffffffffffffffffffffffffffffffffff163373ffffffffffffffffffffffffffffffffffffffff161462000210576040517f08c379a0000000000000000000000000000000000000000000000000000000008152600401620002079062000744565b60405180910390fd5b6000848484604051620002239062000383565b6200023193929190620007de565b604051809103906000f0801580156200024e573d6000803e3d6000fd5b5090506001600081548092919062000266906200085f565b91905055508060026000600154815260200190815260200160002060006101000a81548173ffffffffffffffffffffffffffffffffffffffff021916908373ffffffffffffffffffffffffffffffffffffffff1602179055508073ffffffffffffffffffffffffffffffffffffffff167fe80a39cada1e6f83ae66992998d97920139d37b5fcf7d275fc9111ac8efd46ec868660405162000309929190620008ac565b60405180910390a2809150509392505050565b60015481565b60008054906101000a900473ffffffffffffffffffffffffffffffffffffffff1681565b60006002600083815260200190815260200160002060009054906101000a900473ffffffffffffffffffffffffffffffffffffffff169050919050565b61454f80620008e883390190565b6000604051905090565b600080fd5b600080fd5b6000819050919050565b620003ba81620003a5565b8114620003c657600080fd5b50565b600081359050620003da81620003af565b92915050565b600060208284031215620003f957620003f86200039b565b5b60006200040984828501620003c9565b91505092915050565b600073ffffffffffffffffffffffffffffffffffffffff82169050919050565b60006200043f8262000412565b9050919050565b620004518162000432565b82525050565b60006020820190506200046e600083018462000446565b92915050565b600080fd5b600080fd5b6000601f19601f8301169050919050565b7f4e487b7100000000000000000000000000000000000000000000000000000000600052604160045260246000fd5b620004c9826200047e565b810181811067ffffffffffffffff82111715620004eb57620004ea6200048f565b5b80604052505050565b60006200050062000391565b90506200050e8282620004be565b919050565b600067ffffffffffffffff8211156200053157620005306200048f565b5b6200053c826200047e565b9050602081019050919050565b82818337600083830152505050565b60006200056f620005698462000513565b620004f4565b9050828152602081018484840111156200058e576200058d62000479565b5b6200059b84828562000549565b509392505050565b600082601f830112620005bb57620005ba62000474565b5b8135620005cd84826020860162000558565b91505092915050565b600080600060608486031215620005f257620005f16200039b565b5b600084013567ffffffffffffffff811115620006135762000612620003a0565b5b6200062186828701620005a3565b935050602084013567ffffffffffffffff811115620006455762000644620003a0565b5b6200065386828701620005a3565b925050604084013567ffffffffffffffff811115620006775762000676620003a0565b5b6200068586828701620005a3565b9150509250925092565b6200069a81620003a5565b82525050565b6000602082019050620006b760008301846200068f565b92915050565b600082825260208201905092915050565b7f4f6e6c79206f776e65722063616e2063616c6c20746869732066756e6374696f60008201527f6e2e000000000000000000000000000000000000000000000000000000000000602082015250565b60006200072c602283620006bd565b91506200073982620006ce565b604082019050919050565b600060208201905081810360008301526200075f816200071d565b9050919050565b600081519050919050565b60005b838110156200079157808201518184015260208101905062000774565b60008484015250505050565b6000620007aa8262000766565b620007b68185620006bd565b9350620007c881856020860162000771565b620007d3816200047e565b840191505092915050565b60006060820190508181036000830152620007fa81866200079d565b905081810360208301526200081081856200079d565b905081810360408301526200082681846200079d565b9050949350505050565b7f4e487b7100000000000000000000000000000000000000000000000000000000600052601160045260246000fd5b60006200086c82620003a5565b91507fffffffffffffffffffffffffffffffffffffffffffffffffffffffffffffffff8203620008a157620008a062000830565b5b600182019050919050565b60006040820190508181036000830152620008c881856200079d565b90508181036020830152620008de81846200079d565b9050939250505056fe60806040523480156200001157600080fd5b506040516200454f3803806200454f833981810160405281019062000037919062000433565b828281600090816200004a919062000737565b5080600190816200005c919062000737565b505050620000746000801b336200012560201b60201c565b620000a67f9f2df0fed2c77648de5860a4cc508cd0818c85b8b8a1ab4ceeef8d981c8956a6336200012560201b60201c565b620000d87fb19546dff01e856fb3f010c267a7b1c60363cf8a4664e21cc89c26224620214e336200021760201b60201c565b6200010a7fa49807205ce4d355092ef5a8a18f56e8913cf4a201fbe287825b095693c21775336200021760201b60201c565b80600990816200011b919062000737565b505050506200081e565b6200013782826200022d60201b60201c565b620002135760016007600084815260200190815260200160002060000160008373ffffffffffffffffffffffffffffffffffffffff1673ffffffffffffffffffffffffffffffffffffffff16815260200190815260200160002060006101000a81548160ff021916908315150217905550620001b86200029860201b60201c565b73ffffffffffffffffffffffffffffffffffffffff168173ffffffffffffffffffffffffffffffffffffffff16837f2f8788117e7eff1d82e926ec794901d17c78024a50270940304540a733656f0d60405160405180910390a45b5050565b6200022982826200012560201b60201c565b5050565b60006007600084815260200190815260200160002060000160008373ffffffffffffffffffffffffffffffffffffffff1673ffffffffffffffffffffffffffffffffffffffff16815260200190815260200160002060009054906101000a900460ff16905092915050565b600033905090565b6000604051905090565b600080fd5b600080fd5b600080fd5b600080fd5b6000601f19601f8301169050919050565b7f4e487b7100000000000000000000000000000000000000000000000000000000600052604160045260246000fd5b6200030982620002be565b810181811067ffffffffffffffff821117156200032b576200032a620002cf565b5b80604052505050565b600062000340620002a0565b90506200034e8282620002fe565b919050565b600067ffffffffffffffff821115620003715762000370620002cf565b5b6200037c82620002be565b9050602081019050919050565b60005b83811015620003a95780820151818401526020810190506200038c565b60008484015250505050565b6000620003cc620003c68462000353565b62000334565b905082815260208101848484011115620003eb57620003ea620002b9565b5b620003f884828562000389565b509392505050565b600082601f830112620004185762000417620002b4565b5b81516200042a848260208601620003b5565b91505092915050565b6000806000606084860312156200044f576200044e620002aa565b5b600084015167ffffffffffffffff81111562000470576200046f620002af565b5b6200047e8682870162000400565b935050602084015167ffffffffffffffff811115620004a257620004a1620002af565b5b620004b08682870162000400565b925050604084015167ffffffffffffffff811115620004d457620004d3620002af565b5b620004e28682870162000400565b9150509250925092565b600081519050919050565b7f4e487b7100000000000000000000000000000000000000000000000000000000600052602260045260246000fd5b600060028204905060018216806200053f57607f821691505b602082108103620005555762000554620004f7565b5b50919050565b60008190508160005260206000209050919050565b60006020601f8301049050919050565b600082821b905092915050565b600060088302620005bf7fffffffffffffffffffffffffffffffffffffffffffffffffffffffffffffffff8262000580565b620005cb868362000580565b95508019841693508086168417925050509392505050565b6000819050919050565b6000819050919050565b600062000618620006126200060c84620005e3565b620005ed565b620005e3565b9050919050565b6000819050919050565b6200063483620005f7565b6200064c62000643826200061f565b8484546200058d565b825550505050565b600090565b6200066362000654565b6200067081848462000629565b505050565b5b8181101562000698576200068c60008262000659565b60018101905062000676565b5050565b601f821115620006e757620006b1816200055b565b620006bc8462000570565b81016020851015620006cc578190505b620006e4620006db8562000570565b83018262000675565b50505b505050565b600082821c905092915050565b60006200070c60001984600802620006ec565b1980831691505092915050565b6000620007278383620006f9565b9150826002028217905092915050565b6200074282620004ec565b67ffffffffffffffff8111156200075e576200075d620002cf565b5b6200076a825462000526565b620007778282856200069c565b600060209050601f831160018114620007af57600084156200079a578287015190505b620007a6858262000719565b86555062000816565b601f198416620007bf866200055b565b60005b82811015620007e957848901518255600182019150602085019450602081019050620007c2565b8683101562000809578489015162000805601f891682620006f9565b8355505b6001600288020188555050505b505050505050565b613d21806200082e6000396000f3fe608060405234801561001057600080fd5b50600436106101cf5760003560e01c806370a0823111610104578063b88d4fde116100a2578063d547741f11610071578063d547741f14610526578063e58378bb14610542578063e985e9c514610560578063f2fde38b14610590576101cf565b8063b88d4fde146104a0578063c87b56dd146104bc578063d204c45e146104ec578063d539139314610508576101cf565b806395d89b41116100de57806395d89b411461042c578063983b2d561461044a578063a217fddf14610466578063a22cb46514610484576101cf565b806370a08231146103ae57806375b238fc146103de57806391d14854146103fc576101cf565b8063248a9ca31161017157806336568abe1161014b57806336568abe1461032a57806342842e0e146103465780636352211e146103625780637048027514610392576101cf565b8063248a9ca3146102c25780632f2ff15d146102f25780633092afd51461030e576101cf565b8063095ea7b3116101ad578063095ea7b3146102525780631785f53c1461026e57806318e97fd11461028a57806323b872dd146102a6576101cf565b806301ffc9a7146101d457806306fdde0314610204578063081812fc14610222575b600080fd5b6101ee60048036038101906101e991906126f6565b6105ac565b6040516101fb919061273e565b60405180910390f35b61020c6105be565b60405161021991906127e9565b60405180910390f35b61023c60048036038101906102379190612841565b610650565b60405161024991906128af565b60405180910390f35b61026c600480360381019061026791906128f6565b610696565b005b61028860048036038101906102839190612936565b6107ad565b005b6102a4600480360381019061029f9190612a98565b610805565b005b6102c060048036038101906102bb9190612af4565b610890565b005b6102dc60048036038101906102d79190612b7d565b6108f0565b6040516102e99190612bb9565b60405180910390f35b61030c60048036038101906103079190612bd4565b610910565b005b61032860048036038101906103239190612936565b610931565b005b610344600480360381019061033f9190612bd4565b610989565b005b610360600480360381019061035b9190612af4565b610a0c565b005b61037c60048036038101906103779190612841565b610a2c565b60405161038991906128af565b60405180910390f35b6103ac60048036038101906103a79190612936565b610ab2565b005b6103c860048036038101906103c39190612936565b610b0a565b6040516103d59190612c23565b60405180910390f35b6103e6610bc1565b6040516103f39190612bb9565b60405180910390f35b61041660048036038101906104119190612bd4565b610be5565b604051610423919061273e565b60405180910390f35b610434610c50565b60405161044191906127e9565b60405180910390f35b610464600480360381019061045f9190612936565b610ce2565b005b61046e610d3a565b60405161047b9190612bb9565b60405180910390f35b61049e60048036038101906104999190612c6a565b610d41565b005b6104ba60048036038101906104b59190612d4b565b610d57565b005b6104d660048036038101906104d19190612841565b610db9565b6040516104e391906127e9565b60405180910390f35b61050660048036038101906105019190612dce565b610dcb565b005b610510610e27565b60405161051d9190612bb9565b60405180910390f35b610540600480360381019061053b9190612bd4565b610e4b565b005b61054a610e6c565b6040516105579190612bb9565b60405180910390f35b61057a60048036038101906105759190612e2a565b610e90565b604051610587919061273e565b60405180910390f35b6105aa60048036038101906105a59190612936565b610f24565b005b60006105b782611015565b9050919050565b6060600080546105cd90612e99565b80601f01602080910402602001604051908101604052809291908181526020018280546105f990612e99565b80156106465780601f1061061b57610100808354040283529160200191610646565b820191906000526020600020905b81548152906001019060200180831161062957829003601f168201915b5050505050905090565b600061065b8261108f565b6004600083815260200190815260200160002060009054906101000a900473ffffffffffffffffffffffffffffffffffffffff169050919050565b60006106a182610a2c565b90508073ffffffffffffffffffffffffffffffffffffffff168373ffffffffffffffffffffffffffffffffffffffff1603610711576040517f08c379a000000000000000000000000000000000000000000000000000000000815260040161070890612f3c565b60405180910390fd5b8073ffffffffffffffffffffffffffffffffffffffff166107306110da565b73ffffffffffffffffffffffffffffffffffffffff16148061075f575061075e816107596110da565b610e90565b5b61079e576040517f08c379a000000000000000000000000000000000000000000000000000000000815260040161079590612fce565b60405180910390fd5b6107a883836110e2565b505050565b7fb19546dff01e856fb3f010c267a7b1c60363cf8a4664e21cc89c26224620214e6107d78161119b565b6108017fa49807205ce4d355092ef5a8a18f56e8913cf4a201fbe287825b095693c2177583610e4b565b5050565b61080d6110da565b73ffffffffffffffffffffffffffffffffffffffff1661082c83610a2c565b73ffffffffffffffffffffffffffffffffffffffff1614610882576040517f08c379a000000000000000000000000000000000000000000000000000000000815260040161087990613060565b60405180910390fd5b61088c82826111af565b5050565b6108a161089b6110da565b8261121c565b6108e0576040517f08c379a00000000000000000000000000000000000000000000000000000000081526004016108d7906130f2565b60405180910390fd5b6108eb8383836112b1565b505050565b600060076000838152602001908152602001600020600101549050919050565b610919826108f0565b6109228161119b565b61092c83836115aa565b505050565b7fa49807205ce4d355092ef5a8a18f56e8913cf4a201fbe287825b095693c2177561095b8161119b565b6109857f9f2df0fed2c77648de5860a4cc508cd0818c85b8b8a1ab4ceeef8d981c8956a683610e4b565b5050565b6109916110da565b73ffffffffffffffffffffffffffffffffffffffff168173ffffffffffffffffffffffffffffffffffffffff16146109fe576040517f08c379a00000000000000000000000000000000000000000000000000000000081526004016109f590613184565b60405180910390fd5b610a08828261168b565b5050565b610a2783838360405180602001604052806000815250610d57565b505050565b600080610a388361176d565b9050600073ffffffffffffffffffffffffffffffffffffffff168173ffffffffffffffffffffffffffffffffffffffff1603610aa9576040517f08c379a0000000000000000000000000000000000000000000000000000000008152600401610aa0906131f0565b60405180910390fd5b80915050919050565b7fb19546dff01e856fb3f010c267a7b1c60363cf8a4664e21cc89c26224620214e610adc8161119b565b610b067fa49807205ce4d355092ef5a8a18f56e8913cf4a201fbe287825b095693c2177583610910565b5050565b60008073ffffffffffffffffffffffffffffffffffffffff168273ffffffffffffffffffffffffffffffffffffffff1603610b7a576040517f08c379a0000000000000000000000000000000000000000000000000000000008152600401610b7190613282565b60405180910390fd5b600360008373ffffffffffffffffffffffffffffffffffffffff1673ffffffffffffffffffffffffffffffffffffffff168152602001908152602001600020549050919050565b7fa49807205ce4d355092ef5a8a18f56e8913cf4a201fbe287825b095693c2177581565b60006007600084815260200190815260200160002060000160008373ffffffffffffffffffffffffffffffffffffffff1673ffffffffffffffffffffffffffffffffffffffff16815260200190815260200160002060009054906101000a900460ff16905092915050565b606060018054610c5f90612e99565b80601f0160208091040260200160405190810160405280929190818152602001828054610c8b90612e99565b8015610cd85780601f10610cad57610100808354040283529160200191610cd8565b820191906000526020600020905b815481529060010190602001808311610cbb57829003601f168201915b5050505050905090565b7fa49807205ce4d355092ef5a8a18f56e8913cf4a201fbe287825b095693c21775610d0c8161119b565b610d367f9f2df0fed2c77648de5860a4cc508cd0818c85b8b8a1ab4ceeef8d981c8956a683610910565b5050565b6000801b81565b610d53610d4c6110da565b83836117aa565b5050565b610d68610d626110da565b8361121c565b610da7576040517f08c379a0000000000000000000000000000000000000000000000000000000008152600401610d9e906130f2565b60405180910390fd5b610db384848484611916565b50505050565b6060610dc482611972565b9050919050565b7f9f2df0fed2c77648de5860a4cc508cd0818c85b8b8a1ab4ceeef8d981c8956a6610df58161119b565b6000610e016008611a84565b9050610e0d6008611a92565b610e178482611aa8565b610e2181846111af565b50505050565b7f9f2df0fed2c77648de5860a4cc508cd0818c85b8b8a1ab4ceeef8d981c8956a681565b610e54826108f0565b610e5d8161119b565b610e67838361168b565b505050565b7fb19546dff01e856fb3f010c267a7b1c60363cf8a4664e21cc89c26224620214e81565b6000600560008473ffffffffffffffffffffffffffffffffffffffff1673ffffffffffffffffffffffffffffffffffffffff16815260200190815260200160002060008373ffffffffffffffffffffffffffffffffffffffff1673ffffffffffffffffffffffffffffffffffffffff16815260200190815260200160002060009054906101000a900460ff16905092915050565b7fb19546dff01e856fb3f010c267a7b1c60363cf8a4664e21cc89c26224620214e610f4e8161119b565b600073ffffffffffffffffffffffffffffffffffffffff168273ffffffffffffffffffffffffffffffffffffffff1603610fbd576040517f08c379a0000000000000000000000000000000000000000000000000000000008152600401610fb490613314565b60405180910390fd5b610fe77fb19546dff01e856fb3f010c267a7b1c60363cf8a4664e21cc89c26224620214e83610910565b6110117fb19546dff01e856fb3f010c267a7b1c60363cf8a4664e21cc89c26224620214e33610e4b565b5050565b60007f7965db0b000000000000000000000000000000000000000000000000000000007bffffffffffffffffffffffffffffffffffffffffffffffffffffffff1916827bffffffffffffffffffffffffffffffffffffffffffffffffffffffff19161480611088575061108782611ac6565b5b9050919050565b61109881611ba8565b6110d7576040517f08c379a00000000000000000000000000000000000000000000000000000000081526004016110ce906131f0565b60405180910390fd5b50565b600033905090565b816004600083815260200190815260200160002060006101000a81548173ffffffffffffffffffffffffffffffffffffffff021916908373ffffffffffffffffffffffffffffffffffffffff160217905550808273ffffffffffffffffffffffffffffffffffffffff1661115583610a2c565b73ffffffffffffffffffffffffffffffffffffffff167f8c5be1e5ebec7d5bd14f71427d1e84f3dd0314c0f7b2291e5b200ac8c7c3b92560405160405180910390a45050565b6111ac816111a76110da565b611be9565b50565b6111b882611ba8565b6111f7576040517f08c379a00000000000000000000000000000000000000000000000000000000081526004016111ee906133a6565b60405180910390fd5b806006600084815260200190815260200160002090816112179190613572565b505050565b60008061122883610a2c565b90508073ffffffffffffffffffffffffffffffffffffffff168473ffffffffffffffffffffffffffffffffffffffff16148061126a57506112698185610e90565b5b806112a857508373ffffffffffffffffffffffffffffffffffffffff1661129084610650565b73ffffffffffffffffffffffffffffffffffffffff16145b91505092915050565b8273ffffffffffffffffffffffffffffffffffffffff166112d182610a2c565b73ffffffffffffffffffffffffffffffffffffffff1614611327576040517f08c379a000000000000000000000000000000000000000000000000000000000815260040161131e906136b6565b60405180910390fd5b600073ffffffffffffffffffffffffffffffffffffffff168273ffffffffffffffffffffffffffffffffffffffff1603611396576040517f08c379a000000000000000000000000000000000000000000000000000000000815260040161138d90613748565b60405180910390fd5b6113a38383836001611c6e565b8273ffffffffffffffffffffffffffffffffffffffff166113c382610a2c565b73ffffffffffffffffffffffffffffffffffffffff1614611419576040517f08c379a0000000000000000000000000000000000000000000000000000000008152600401611410906136b6565b60405180910390fd5b6004600082815260200190815260200160002060006101000a81549073ffffffffffffffffffffffffffffffffffffffff02191690556001600360008573ffffffffffffffffffffffffffffffffffffffff1673ffffffffffffffffffffffffffffffffffffffff168152602001908152602001600020600082825403925050819055506001600360008473ffffffffffffffffffffffffffffffffffffffff1673ffffffffffffffffffffffffffffffffffffffff16815260200190815260200160002060008282540192505081905550816002600083815260200190815260200160002060006101000a81548173ffffffffffffffffffffffffffffffffffffffff021916908373ffffffffffffffffffffffffffffffffffffffff160217905550808273ffffffffffffffffffffffffffffffffffffffff168473ffffffffffffffffffffffffffffffffffffffff167fddf252ad1be2c89b69c2b068fc378daa952ba7f163c4a11628f55a4df523b3ef60405160405180910390a46115a58383836001611c74565b505050565b6115b48282610be5565b6116875760016007600084815260200190815260200160002060000160008373ffffffffffffffffffffffffffffffffffffffff1673ffffffffffffffffffffffffffffffffffffffff16815260200190815260200160002060006101000a81548160ff02191690831515021790555061162c6110da565b73ffffffffffffffffffffffffffffffffffffffff168173ffffffffffffffffffffffffffffffffffffffff16837f2f8788117e7eff1d82e926ec794901d17c78024a50270940304540a733656f0d60405160405180910390a45b5050565b6116958282610be5565b156117695760006007600084815260200190815260200160002060000160008373ffffffffffffffffffffffffffffffffffffffff1673ffffffffffffffffffffffffffffffffffffffff16815260200190815260200160002060006101000a81548160ff02191690831515021790555061170e6110da565b73ffffffffffffffffffffffffffffffffffffffff168173ffffffffffffffffffffffffffffffffffffffff16837ff6391f5c32d9c69d2a47ea670b442974b53935d1edc7fd64eb21e047a839171b60405160405180910390a45b5050565b60006002600083815260200190815260200160002060009054906101000a900473ffffffffffffffffffffffffffffffffffffffff169050919050565b8173ffffffffffffffffffffffffffffffffffffffff168373ffffffffffffffffffffffffffffffffffffffff1603611818576040517f08c379a000000000000000000000000000000000000000000000000000000000815260040161180f906137b4565b60405180910390fd5b80600560008573ffffffffffffffffffffffffffffffffffffffff1673ffffffffffffffffffffffffffffffffffffffff16815260200190815260200160002060008473ffffffffffffffffffffffffffffffffffffffff1673ffffffffffffffffffffffffffffffffffffffff16815260200190815260200160002060006101000a81548160ff0219169083151502179055508173ffffffffffffffffffffffffffffffffffffffff168373ffffffffffffffffffffffffffffffffffffffff167f17307eab39ab6107e8899845ad3d59bd9653f200f220920489ca2b5937696c3183604051611909919061273e565b60405180910390a3505050565b6119218484846112b1565b61192d84848484611c7a565b61196c576040517f08c379a000000000000000000000000000000000000000000000000000000000815260040161196390613846565b60405180910390fd5b50505050565b606061197d8261108f565b600060066000848152602001908152602001600020805461199d90612e99565b80601f01602080910402602001604051908101604052809291908181526020018280546119c990612e99565b8015611a165780601f106119eb57610100808354040283529160200191611a16565b820191906000526020600020905b8154815290600101906020018083116119f957829003601f168201915b505050505090506000611a27611e01565b90506000815103611a3c578192505050611a7f565b600082511115611a71578082604051602001611a599291906138a2565b60405160208183030381529060405292505050611a7f565b611a7a84611e93565b925050505b919050565b600081600001549050919050565b6001816000016000828254019250508190555050565b611ac2828260405180602001604052806000815250611efb565b5050565b60007f80ac58cd000000000000000000000000000000000000000000000000000000007bffffffffffffffffffffffffffffffffffffffffffffffffffffffff1916827bffffffffffffffffffffffffffffffffffffffffffffffffffffffff19161480611b9157507f5b5e139f000000000000000000000000000000000000000000000000000000007bffffffffffffffffffffffffffffffffffffffffffffffffffffffff1916827bffffffffffffffffffffffffffffffffffffffffffffffffffffffff1916145b80611ba15750611ba082611f56565b5b9050919050565b60008073ffffffffffffffffffffffffffffffffffffffff16611bca8361176d565b73ffffffffffffffffffffffffffffffffffffffff1614159050919050565b611bf38282610be5565b611c6a57611c0081611fc0565b611c0e8360001c6020611fed565b604051602001611c1f92919061395e565b6040516020818303038152906040526040517f08c379a0000000000000000000000000000000000000000000000000000000008152600401611c6191906127e9565b60405180910390fd5b5050565b50505050565b50505050565b6000611c9b8473ffffffffffffffffffffffffffffffffffffffff16612229565b15611df4578373ffffffffffffffffffffffffffffffffffffffff1663150b7a02611cc46110da565b8786866040518563ffffffff1660e01b8152600401611ce694939291906139ed565b6020604051808303816000875af1925050508015611d2257506040513d601f19601f82011682018060405250810190611d1f9190613a4e565b60015b611da4573d8060008114611d52576040519150601f19603f3d011682016040523d82523d6000602084013e611d57565b606091505b506000815103611d9c576040517f08c379a0000000000000000000000000000000000000000000000000000000008152600401611d9390613846565b60405180910390fd5b805181602001fd5b63150b7a0260e01b7bffffffffffffffffffffffffffffffffffffffffffffffffffffffff1916817bffffffffffffffffffffffffffffffffffffffffffffffffffffffff191614915050611df9565b600190505b949350505050565b606060098054611e1090612e99565b80601f0160208091040260200160405190810160405280929190818152602001828054611e3c90612e99565b8015611e895780601f10611e5e57610100808354040283529160200191611e89565b820191906000526020600020905b815481529060010190602001808311611e6c57829003601f168201915b5050505050905090565b6060611e9e8261108f565b6000611ea8611e01565b90506000815111611ec85760405180602001604052806000815250611ef3565b80611ed28461224c565b604051602001611ee39291906138a2565b6040516020818303038152906040525b915050919050565b611f05838361231a565b611f126000848484611c7a565b611f51576040517f08c379a0000000000000000000000000000000000000000000000000000000008152600401611f4890613846565b60405180910390fd5b505050565b60007f01ffc9a7000000000000000000000000000000000000000000000000000000007bffffffffffffffffffffffffffffffffffffffffffffffffffffffff1916827bffffffffffffffffffffffffffffffffffffffffffffffffffffffff1916149050919050565b6060611fe68273ffffffffffffffffffffffffffffffffffffffff16601460ff16611fed565b9050919050565b6060600060028360026120009190613aaa565b61200a9190613aec565b67ffffffffffffffff8111156120235761202261296d565b5b6040519080825280601f01601f1916602001820160405280156120555781602001600182028036833780820191505090505b5090507f30000000000000000000000000000000000000000000000000000000000000008160008151811061208d5761208c613b20565b5b60200101907effffffffffffffffffffffffffffffffffffffffffffffffffffffffffffff1916908160001a9053507f7800000000000000000000000000000000000000000000000000000000000000816001815181106120f1576120f0613b20565b5b60200101907effffffffffffffffffffffffffffffffffffffffffffffffffffffffffffff1916908160001a905350600060018460026121319190613aaa565b61213b9190613aec565b90505b60018111156121db577f3031323334353637383961626364656600000000000000000000000000000000600f86166010811061217d5761217c613b20565b5b1a60f81b82828151811061219457612193613b20565b5b60200101907effffffffffffffffffffffffffffffffffffffffffffffffffffffffffffff1916908160001a905350600485901c9450806121d490613b4f565b905061213e565b506000841461221f576040517f08c379a000000000000000000000000000000000000000000000000000000000815260040161221690613bc4565b60405180910390fd5b8091505092915050565b6000808273ffffffffffffffffffffffffffffffffffffffff163b119050919050565b60606000600161225b84612537565b01905060008167ffffffffffffffff81111561227a5761227961296d565b5b6040519080825280601f01601f1916602001820160405280156122ac5781602001600182028036833780820191505090505b509050600082602001820190505b60011561230f578080600190039150507f3031323334353637383961626364656600000000000000000000000000000000600a86061a8153600a858161230357612302613be4565b5b049450600085036122ba575b819350505050919050565b600073ffffffffffffffffffffffffffffffffffffffff168273ffffffffffffffffffffffffffffffffffffffff1603612389576040517f08c379a000000000000000000000000000000000000000000000000000000000815260040161238090613c5f565b60405180910390fd5b61239281611ba8565b156123d2576040517f08c379a00000000000000000000000000000000000000000000000000000000081526004016123c990613ccb565b60405180910390fd5b6123e0600083836001611c6e565b6123e981611ba8565b15612429576040517f08c379a000000000000000000000000000000000000000000000000000000000815260040161242090613ccb565b60405180910390fd5b6001600360008473ffffffffffffffffffffffffffffffffffffffff1673ffffffffffffffffffffffffffffffffffffffff16815260200190815260200160002060008282540192505081905550816002600083815260200190815260200160002060006101000a81548173ffffffffffffffffffffffffffffffffffffffff021916908373ffffffffffffffffffffffffffffffffffffffff160217905550808273ffffffffffffffffffffffffffffffffffffffff16600073ffffffffffffffffffffffffffffffffffffffff167fddf252ad1be2c89b69c2b068fc378daa952ba7f163c4a11628f55a4df523b3ef60405160405180910390a4612533600083836001611c74565b5050565b600080600090507a184f03e93ff9f4daa797ed6e38ed64bf6a1f0100000000000000008310612595577a184f03e93ff9f4daa797ed6e38ed64bf6a1f010000000000000000838161258b5761258a613be4565b5b0492506040810190505b6d04ee2d6d415b85acef810000000083106125d2576d04ee2d6d415b85acef810000000083816125c8576125c7613be4565b5b0492506020810190505b662386f26fc10000831061260157662386f26fc1000083816125f7576125f6613be4565b5b0492506010810190505b6305f5e100831061262a576305f5e10083816126205761261f613be4565b5b0492506008810190505b612710831061264f57612710838161264557612644613be4565b5b0492506004810190505b60648310612672576064838161266857612667613be4565b5b0492506002810190505b600a8310612681576001810190505b80915050919050565b6000604051905090565b600080fd5b600080fd5b60007fffffffff0000000000000000000000000000000000000000000000000000000082169050919050565b6126d38161269e565b81146126de57600080fd5b50565b6000813590506126f0816126ca565b92915050565b60006020828403121561270c5761270b612694565b5b600061271a848285016126e1565b91505092915050565b60008115159050919050565b61273881612723565b82525050565b6000602082019050612753600083018461272f565b92915050565b600081519050919050565b600082825260208201905092915050565b60005b83811015612793578082015181840152602081019050612778565b60008484015250505050565b6000601f19601f8301169050919050565b60006127bb82612759565b6127c58185612764565b93506127d5818560208601612775565b6127de8161279f565b840191505092915050565b6000602082019050818103600083015261280381846127b0565b905092915050565b6000819050919050565b61281e8161280b565b811461282957600080fd5b50565b60008135905061283b81612815565b92915050565b60006020828403121561285757612856612694565b5b60006128658482850161282c565b91505092915050565b600073ffffffffffffffffffffffffffffffffffffffff82169050919050565b60006128998261286e565b9050919050565b6128a98161288e565b82525050565b60006020820190506128c460008301846128a0565b92915050565b6128d38161288e565b81146128de57600080fd5b50565b6000813590506128f0816128ca565b92915050565b6000806040838503121561290d5761290c612694565b5b600061291b858286016128e1565b925050602061292c8582860161282c565b9150509250929050565b60006020828403121561294c5761294b612694565b5b600061295a848285016128e1565b91505092915050565b600080fd5b600080fd5b7f4e487b7100000000000000000000000000000000000000000000000000000000600052604160045260246000fd5b6129a58261279f565b810181811067ffffffffffffffff821117156129c4576129c361296d565b5b80604052505050565b60006129d761268a565b90506129e3828261299c565b919050565b600067ffffffffffffffff821115612a0357612a0261296d565b5b612a0c8261279f565b9050602081019050919050565b82818337600083830152505050565b6000612a3b612a36846129e8565b6129cd565b905082815260208101848484011115612a5757612a56612968565b5b612a62848285612a19565b509392505050565b600082601f830112612a7f57612a7e612963565b5b8135612a8f848260208601612a28565b91505092915050565b60008060408385031215612aaf57612aae612694565b5b6000612abd8582860161282c565b925050602083013567ffffffffffffffff811115612ade57612add612699565b5b612aea85828601612a6a565b9150509250929050565b600080600060608486031215612b0d57612b0c612694565b5b6000612b1b868287016128e1565b9350506020612b2c868287016128e1565b9250506040612b3d8682870161282c565b9150509250925092565b6000819050919050565b612b5a81612b47565b8114612b6557600080fd5b50565b600081359050612b7781612b51565b92915050565b600060208284031215612b9357612b92612694565b5b6000612ba184828501612b68565b91505092915050565b612bb381612b47565b82525050565b6000602082019050612bce6000830184612baa565b92915050565b60008060408385031215612beb57612bea612694565b5b6000612bf985828601612b68565b9250506020612c0a858286016128e1565b9150509250929050565b612c1d8161280b565b82525050565b6000602082019050612c386000830184612c14565b92915050565b612c4781612723565b8114612c5257600080fd5b50565b600081359050612c6481612c3e565b92915050565b60008060408385031215612c8157612c80612694565b5b6000612c8f858286016128e1565b9250506020612ca085828601612c55565b9150509250929050565b600067ffffffffffffffff821115612cc557612cc461296d565b5b612cce8261279f565b9050602081019050919050565b6000612cee612ce984612caa565b6129cd565b905082815260208101848484011115612d0a57612d09612968565b5b612d15848285612a19565b509392505050565b600082601f830112612d3257612d31612963565b5b8135612d42848260208601612cdb565b91505092915050565b60008060008060808587031215612d6557612d64612694565b5b6000612d73878288016128e1565b9450506020612d84878288016128e1565b9350506040612d958782880161282c565b925050606085013567ffffffffffffffff811115612db657612db5612699565b5b612dc287828801612d1d565b91505092959194509250565b60008060408385031215612de557612de4612694565b5b6000612df3858286016128e1565b925050602083013567ffffffffffffffff811115612e1457612e13612699565b5b612e2085828601612a6a565b9150509250929050565b60008060408385031215612e4157612e40612694565b5b6000612e4f858286016128e1565b9250506020612e60858286016128e1565b9150509250929050565b7f4e487b7100000000000000000000000000000000000000000000000000000000600052602260045260246000fd5b60006002820490506001821680612eb157607f821691505b602082108103612ec457612ec3612e6a565b5b50919050565b7f4552433732313a20617070726f76616c20746f2063757272656e74206f776e6560008201527f7200000000000000000000000000000000000000000000000000000000000000602082015250565b6000612f26602183612764565b9150612f3182612eca565b604082019050919050565b60006020820190508181036000830152612f5581612f19565b9050919050565b7f4552433732313a20617070726f76652063616c6c6572206973206e6f7420746f60008201527f6b656e206f776e6572206f7220617070726f76656420666f7220616c6c000000602082015250565b6000612fb8603d83612764565b9150612fc382612f5c565b604082019050919050565b60006020820190508181036000830152612fe781612fab565b9050919050565b7f4552433732313a207472616e736665722063616c6c6572206973206e6f74206f60008201527f776e6572206e6f7220617070726f766564000000000000000000000000000000602082015250565b600061304a603183612764565b915061305582612fee565b604082019050919050565b600060208201905081810360008301526130798161303d565b9050919050565b7f4552433732313a2063616c6c6572206973206e6f7420746f6b656e206f776e6560008201527f72206f7220617070726f76656400000000000000000000000000000000000000602082015250565b60006130dc602d83612764565b91506130e782613080565b604082019050919050565b6000602082019050818103600083015261310b816130cf565b9050919050565b7f416363657373436f6e74726f6c3a2063616e206f6e6c792072656e6f756e636560008201527f20726f6c657320666f722073656c660000000000000000000000000000000000602082015250565b600061316e602f83612764565b915061317982613112565b604082019050919050565b6000602082019050818103600083015261319d81613161565b9050919050565b7f4552433732313a20696e76616c696420746f6b656e2049440000000000000000600082015250565b60006131da601883612764565b91506131e5826131a4565b602082019050919050565b60006020820190508181036000830152613209816131cd565b9050919050565b7f4552433732313a2061646472657373207a65726f206973206e6f74206120766160008201527f6c6964206f776e65720000000000000000000000000000000000000000000000602082015250565b600061326c602983612764565b915061327782613210565b604082019050919050565b6000602082019050818103600083015261329b8161325f565b9050919050565b7f4552433732313a206e6577206f776e6572206973207a65726f2061646472657360008201527f7300000000000000000000000000000000000000000000000000000000000000602082015250565b60006132fe602183612764565b9150613309826132a2565b604082019050919050565b6000602082019050818103600083015261332d816132f1565b9050919050565b7f45524337323155524953746f726167653a2055524920736574206f66206e6f6e60008201527f6578697374656e7420746f6b656e000000000000000000000000000000000000602082015250565b6000613390602e83612764565b915061339b82613334565b604082019050919050565b600060208201905081810360008301526133bf81613383565b9050919050565b60008190508160005260206000209050919050565b60006020601f8301049050919050565b600082821b905092915050565b6000600883026134287fffffffffffffffffffffffffffffffffffffffffffffffffffffffffffffffff826133eb565b61343286836133eb565b95508019841693508086168417925050509392505050565b6000819050919050565b600061346f61346a6134658461280b565b61344a565b61280b565b9050919050565b6000819050919050565b61348983613454565b61349d61349582613476565b8484546133f8565b825550505050565b600090565b6134b26134a5565b6134bd818484613480565b505050565b5b818110156134e1576134d66000826134aa565b6001810190506134c3565b5050565b601f821115613526576134f7816133c6565b613500846133db565b8101602085101561350f578190505b61352361351b856133db565b8301826134c2565b50505b505050565b600082821c905092915050565b60006135496000198460080261352b565b1980831691505092915050565b60006135628383613538565b9150826002028217905092915050565b61357b82612759565b67ffffffffffffffff8111156135945761359361296d565b5b61359e8254612e99565b6135a98282856134e5565b600060209050601f8311600181146135dc57600084156135ca578287015190505b6135d48582613556565b86555061363c565b601f1984166135ea866133c6565b60005b82811015613612578489015182556001820191506020850194506020810190506135ed565b8683101561362f578489015161362b601f891682613538565b8355505b6001600288020188555050505b505050505050565b7f4552433732313a207472616e736665722066726f6d20696e636f72726563742060008201527f6f776e6572000000000000000000000000000000000000000000000000000000602082015250565b60006136a0602583612764565b91506136ab82613644565b604082019050919050565b600060208201905081810360008301526136cf81613693565b9050919050565b7f4552433732313a207472616e7366657220746f20746865207a65726f2061646460008201527f7265737300000000000000000000000000000000000000000000000000000000602082015250565b6000613732602483612764565b915061373d826136d6565b604082019050919050565b6000602082019050818103600083015261376181613725565b9050919050565b7f4552433732313a20617070726f766520746f2063616c6c657200000000000000600082015250565b600061379e601983612764565b91506137a982613768565b602082019050919050565b600060208201905081810360008301526137cd81613791565b9050919050565b7f4552433732313a207472616e7366657220746f206e6f6e20455243373231526560008201527f63656976657220696d706c656d656e7465720000000000000000000000000000602082015250565b6000613830603283612764565b915061383b826137d4565b604082019050919050565b6000602082019050818103600083015261385f81613823565b9050919050565b600081905092915050565b600061387c82612759565b6138868185613866565b9350613896818560208601612775565b80840191505092915050565b60006138ae8285613871565b91506138ba8284613871565b91508190509392505050565b7f416363657373436f6e74726f6c3a206163636f756e7420000000000000000000600082015250565b60006138fc601783613866565b9150613907826138c6565b601782019050919050565b7f206973206d697373696e6720726f6c6520000000000000000000000000000000600082015250565b6000613948601183613866565b915061395382613912565b601182019050919050565b6000613969826138ef565b91506139758285613871565b91506139808261393b565b915061398c8284613871565b91508190509392505050565b600081519050919050565b600082825260208201905092915050565b60006139bf82613998565b6139c981856139a3565b93506139d9818560208601612775565b6139e28161279f565b840191505092915050565b6000608082019050613a0260008301876128a0565b613a0f60208301866128a0565b613a1c6040830185612c14565b8181036060830152613a2e81846139b4565b905095945050505050565b600081519050613a48816126ca565b92915050565b600060208284031215613a6457613a63612694565b5b6000613a7284828501613a39565b91505092915050565b7f4e487b7100000000000000000000000000000000000000000000000000000000600052601160045260246000fd5b6000613ab58261280b565b9150613ac08361280b565b9250828202613ace8161280b565b91508282048414831517613ae557613ae4613a7b565b5b5092915050565b6000613af78261280b565b9150613b028361280b565b9250828201905080821115613b1a57613b19613a7b565b5b92915050565b7f4e487b7100000000000000000000000000000000000000000000000000000000600052603260045260246000fd5b6000613b5a8261280b565b915060008203613b6d57613b6c613a7b565b5b600182039050919050565b7f537472696e67733a20686578206c656e67746820696e73756666696369656e74600082015250565b6000613bae602083612764565b9150613bb982613b78565b602082019050919050565b60006020820190508181036000830152613bdd81613ba1565b9050919050565b7f4e487b7100000000000000000000000000000000000000000000000000000000600052601260045260246000fd5b7f4552433732313a206d696e7420746f20746865207a65726f2061646472657373600082015250565b6000613c49602083612764565b9150613c5482613c13565b602082019050919050565b60006020820190508181036000830152613c7881613c3c565b9050919050565b7f4552433732313a20746f6b656e20616c7265616479206d696e74656400000000600082015250565b6000613cb5601c83612764565b9150613cc082613c7f565b602082019050919050565b60006020820190508181036000830152613ce481613ca8565b905091905056fea2646970667358221220f61ed70305d8687ad1cb8dfd40b4e0ef7fdc5d5722865d162a709fed41415a2664736f6c63430008130033a26469706673582212206343ffb2218b24b55d504de8592dfcf244a48c42ce0de8edec9979e9a9b1f11e64736f6c63430008130033",
  "immutableReferences": {},
  "source": "// SPDX-License-Identifier: MIT\npragma solidity ^0.8.9;\n\nimport \"./dynamicNft.sol\";\n\ncontract nftFactory {\n\n    address public owner;\n    uint public contractCount = 0;\n\n    mapping(uint => address) public contracts;\n\n    constructor() {\n        owner = msg.sender;\n    }\n\n    // Modifier to check if the caller is the owner\n\n    modifier onlyOwner() {\n        require(msg.sender == owner, \"Only owner can call this function.\");\n        _;\n    }\n    // Event that is emitted when a new ERC721 contract is created\n    event ContractCreated(address indexed newContract, string name, string symbol);\n\n    // Create a new ERC721 contract with the given name and symbol\n    // To create new ERC721 ,we need to pass name,symbol and baseURI\n    function createERC721(string memory _name, string memory _symbol,string memory baseURI_) public onlyOwner returns (address) {\n        ERC721 newContract = new dynamicNft(_name, _symbol, baseURI_);\n        \n        contractCount++;\n        contracts[contractCount] = address(newContract);\n        emit ContractCreated(address(newContract), _name, _symbol);\n        return address(newContract);\n    }\n\n    // Get the address of the ERC721 contract at the given index\n    function getContractAddress(uint _index) public view returns (address) {\n        return contracts[_index];\n    }\n}",
  "sourcePath": "/Users/apple/Desktop/Nft-Factory/contracts/nftFactory.sol",
  "compiler": {
    "name": "solc",
    "version": "0.8.19+commit.7dd6d404.Emscripten.clang"
  },
  "schemaVersion": "3.4.11",
  "updatedAt": "2023-03-11T11:05:19.603Z",
  "networkType": "ethereum",
  "devdoc": {
    "kind": "dev",
    "methods": {},
    "version": 1
  },
  "userdoc": {
    "kind": "user",
    "methods": {},
    "version": 1
  }
}